{
  "contractName": "CityVoucher",
  "abi": [
    {
      "inputs": [],
      "stateMutability": "nonpayable",
      "type": "constructor"
    },
    {
      "anonymous": false,
      "inputs": [
        {
          "indexed": true,
          "internalType": "address",
          "name": "owner",
          "type": "address"
        },
        {
          "indexed": true,
          "internalType": "address",
          "name": "approved",
          "type": "address"
        },
        {
          "indexed": true,
          "internalType": "uint256",
          "name": "tokenId",
          "type": "uint256"
        }
      ],
      "name": "Approval",
      "type": "event"
    },
    {
      "anonymous": false,
      "inputs": [
        {
          "indexed": true,
          "internalType": "address",
          "name": "owner",
          "type": "address"
        },
        {
          "indexed": true,
          "internalType": "address",
          "name": "operator",
          "type": "address"
        },
        {
          "indexed": false,
          "internalType": "bool",
          "name": "approved",
          "type": "bool"
        }
      ],
      "name": "ApprovalForAll",
      "type": "event"
    },
    {
      "anonymous": false,
      "inputs": [
        {
          "indexed": false,
          "internalType": "uint256",
          "name": "_fromTokenId",
          "type": "uint256"
        },
        {
          "indexed": false,
          "internalType": "uint256",
          "name": "_toTokenId",
          "type": "uint256"
        }
      ],
      "name": "BatchMetadataUpdate",
      "type": "event"
    },
    {
      "anonymous": false,
      "inputs": [
        {
          "indexed": false,
          "internalType": "uint256",
          "name": "_tokenId",
          "type": "uint256"
        }
      ],
      "name": "MetadataUpdate",
      "type": "event"
    },
    {
      "anonymous": false,
      "inputs": [
        {
          "indexed": true,
          "internalType": "address",
          "name": "from",
          "type": "address"
        },
        {
          "indexed": true,
          "internalType": "address",
          "name": "to",
          "type": "address"
        },
        {
          "indexed": true,
          "internalType": "uint256",
          "name": "tokenId",
          "type": "uint256"
        }
      ],
      "name": "Transfer",
      "type": "event"
    },
    {
      "inputs": [
        {
          "internalType": "address",
          "name": "to",
          "type": "address"
        },
        {
          "internalType": "uint256",
          "name": "tokenId",
          "type": "uint256"
        }
      ],
      "name": "approve",
      "outputs": [],
      "stateMutability": "nonpayable",
      "type": "function"
    },
    {
      "inputs": [
        {
          "internalType": "address",
          "name": "owner",
          "type": "address"
        }
      ],
      "name": "balanceOf",
      "outputs": [
        {
          "internalType": "uint256",
          "name": "",
          "type": "uint256"
        }
      ],
      "stateMutability": "view",
      "type": "function",
      "constant": true
    },
    {
      "inputs": [
        {
          "internalType": "uint256",
          "name": "tokenId",
          "type": "uint256"
        }
      ],
      "name": "getApproved",
      "outputs": [
        {
          "internalType": "address",
          "name": "",
          "type": "address"
        }
      ],
      "stateMutability": "view",
      "type": "function",
      "constant": true
    },
    {
      "inputs": [
        {
          "internalType": "address",
          "name": "owner",
          "type": "address"
        },
        {
          "internalType": "address",
          "name": "operator",
          "type": "address"
        }
      ],
      "name": "isApprovedForAll",
      "outputs": [
        {
          "internalType": "bool",
          "name": "",
          "type": "bool"
        }
      ],
      "stateMutability": "view",
      "type": "function",
      "constant": true
    },
    {
      "inputs": [],
      "name": "name",
      "outputs": [
        {
          "internalType": "string",
          "name": "",
          "type": "string"
        }
      ],
      "stateMutability": "view",
      "type": "function",
      "constant": true
    },
    {
      "inputs": [
        {
          "internalType": "uint256",
          "name": "tokenId",
          "type": "uint256"
        }
      ],
      "name": "ownerOf",
      "outputs": [
        {
          "internalType": "address",
          "name": "",
          "type": "address"
        }
      ],
      "stateMutability": "view",
      "type": "function",
      "constant": true
    },
    {
      "inputs": [
        {
          "internalType": "address",
          "name": "from",
          "type": "address"
        },
        {
          "internalType": "address",
          "name": "to",
          "type": "address"
        },
        {
          "internalType": "uint256",
          "name": "tokenId",
          "type": "uint256"
        }
      ],
      "name": "safeTransferFrom",
      "outputs": [],
      "stateMutability": "nonpayable",
      "type": "function"
    },
    {
      "inputs": [
        {
          "internalType": "address",
          "name": "from",
          "type": "address"
        },
        {
          "internalType": "address",
          "name": "to",
          "type": "address"
        },
        {
          "internalType": "uint256",
          "name": "tokenId",
          "type": "uint256"
        },
        {
          "internalType": "bytes",
          "name": "data",
          "type": "bytes"
        }
      ],
      "name": "safeTransferFrom",
      "outputs": [],
      "stateMutability": "nonpayable",
      "type": "function"
    },
    {
      "inputs": [
        {
          "internalType": "address",
          "name": "operator",
          "type": "address"
        },
        {
          "internalType": "bool",
          "name": "approved",
          "type": "bool"
        }
      ],
      "name": "setApprovalForAll",
      "outputs": [],
      "stateMutability": "nonpayable",
      "type": "function"
    },
    {
      "inputs": [
        {
          "internalType": "bytes4",
          "name": "interfaceId",
          "type": "bytes4"
        }
      ],
      "name": "supportsInterface",
      "outputs": [
        {
          "internalType": "bool",
          "name": "",
          "type": "bool"
        }
      ],
      "stateMutability": "view",
      "type": "function",
      "constant": true
    },
    {
      "inputs": [],
      "name": "symbol",
      "outputs": [
        {
          "internalType": "string",
          "name": "",
          "type": "string"
        }
      ],
      "stateMutability": "view",
      "type": "function",
      "constant": true
    },
    {
      "inputs": [
        {
          "internalType": "uint256",
          "name": "tokenId",
          "type": "uint256"
        }
      ],
      "name": "tokenURI",
      "outputs": [
        {
          "internalType": "string",
          "name": "",
          "type": "string"
        }
      ],
      "stateMutability": "view",
      "type": "function",
      "constant": true
    },
    {
      "inputs": [
        {
          "internalType": "address",
          "name": "from",
          "type": "address"
        },
        {
          "internalType": "address",
          "name": "to",
          "type": "address"
        },
        {
          "internalType": "uint256",
          "name": "tokenId",
          "type": "uint256"
        }
      ],
      "name": "transferFrom",
      "outputs": [],
      "stateMutability": "nonpayable",
      "type": "function"
    },
    {
      "inputs": [
        {
          "internalType": "address",
          "name": "player",
          "type": "address"
        },
        {
          "internalType": "string",
          "name": "tokenURI",
          "type": "string"
        }
      ],
      "name": "awardItem",
      "outputs": [
        {
          "internalType": "uint256",
          "name": "",
          "type": "uint256"
        }
      ],
      "stateMutability": "nonpayable",
      "type": "function"
    }
  ],
  "bytecode": "0x60806040523480156200001157600080fd5b506040518060400160405280600b81526020017f43697479566f75636865720000000000000000000000000000000000000000008152506040518060400160405280600281526020017f4356000000000000000000000000000000000000000000000000000000000000815250816000908051906020019062000096929190620000b8565b508060019080519060200190620000af929190620000b8565b505050620001cc565b828054620000c69062000197565b90600052602060002090601f016020900481019282620000ea576000855562000136565b82601f106200010557805160ff191683800117855562000136565b8280016001018555821562000136579182015b828111156200013557825182559160200191906001019062000118565b5b50905062000145919062000149565b5090565b5b80821115620001645760008160009055506001016200014a565b5090565b7f4e487b7100000000000000000000000000000000000000000000000000000000600052602260045260246000fd5b60006002820490506001821680620001b057607f821691505b602082108103620001c657620001c562000168565b5b50919050565b61296f80620001dc6000396000f3fe608060405234801561001057600080fd5b50600436106100ea5760003560e01c806370a082311161008c578063b88d4fde11610066578063b88d4fde1461025b578063c87b56dd14610277578063cf378343146102a7578063e985e9c5146102d7576100ea565b806370a08231146101f157806395d89b4114610221578063a22cb4651461023f576100ea565b8063095ea7b3116100c8578063095ea7b31461016d57806323b872dd1461018957806342842e0e146101a55780636352211e146101c1576100ea565b806301ffc9a7146100ef57806306fdde031461011f578063081812fc1461013d575b600080fd5b61010960048036038101906101049190611a5c565b610307565b6040516101169190611aa4565b60405180910390f35b610127610368565b6040516101349190611b58565b60405180910390f35b61015760048036038101906101529190611bb0565b6103fa565b6040516101649190611c1e565b60405180910390f35b61018760048036038101906101829190611c65565b610440565b005b6101a3600480360381019061019e9190611ca5565b610557565b005b6101bf60048036038101906101ba9190611ca5565b6105b7565b005b6101db60048036038101906101d69190611bb0565b6105d7565b6040516101e89190611c1e565b60405180910390f35b61020b60048036038101906102069190611cf8565b61065d565b6040516102189190611d34565b60405180910390f35b610229610714565b6040516102369190611b58565b60405180910390f35b61025960048036038101906102549190611d7b565b6107a6565b005b61027560048036038101906102709190611ef0565b6107bc565b005b610291600480360381019061028c9190611bb0565b61081e565b60405161029e9190611b58565b60405180910390f35b6102c160048036038101906102bc9190612014565b610930565b6040516102ce9190611d34565b60405180910390f35b6102f160048036038101906102ec9190612070565b61096f565b6040516102fe9190611aa4565b60405180910390f35b6000634906490660e01b7bffffffffffffffffffffffffffffffffffffffffffffffffffffffff1916827bffffffffffffffffffffffffffffffffffffffffffffffffffffffff19161480610361575061036082610a03565b5b9050919050565b606060008054610377906120df565b80601f01602080910402602001604051908101604052809291908181526020018280546103a3906120df565b80156103f05780601f106103c5576101008083540402835291602001916103f0565b820191906000526020600020905b8154815290600101906020018083116103d357829003601f168201915b5050505050905090565b600061040582610ae5565b6004600083815260200190815260200160002060009054906101000a900473ffffffffffffffffffffffffffffffffffffffff169050919050565b600061044b826105d7565b90508073ffffffffffffffffffffffffffffffffffffffff168373ffffffffffffffffffffffffffffffffffffffff16036104bb576040517f08c379a00000000000000000000000000000000000000000000000000000000081526004016104b290612182565b60405180910390fd5b8073ffffffffffffffffffffffffffffffffffffffff166104da610b30565b73ffffffffffffffffffffffffffffffffffffffff161480610509575061050881610503610b30565b61096f565b5b610548576040517f08c379a000000000000000000000000000000000000000000000000000000000815260040161053f90612214565b60405180910390fd5b6105528383610b38565b505050565b610568610562610b30565b82610bf1565b6105a7576040517f08c379a000000000000000000000000000000000000000000000000000000000815260040161059e906122a6565b60405180910390fd5b6105b2838383610c86565b505050565b6105d2838383604051806020016040528060008152506107bc565b505050565b6000806105e383610f7f565b9050600073ffffffffffffffffffffffffffffffffffffffff168173ffffffffffffffffffffffffffffffffffffffff1603610654576040517f08c379a000000000000000000000000000000000000000000000000000000000815260040161064b90612312565b60405180910390fd5b80915050919050565b60008073ffffffffffffffffffffffffffffffffffffffff168273ffffffffffffffffffffffffffffffffffffffff16036106cd576040517f08c379a00000000000000000000000000000000000000000000000000000000081526004016106c4906123a4565b60405180910390fd5b600360008373ffffffffffffffffffffffffffffffffffffffff1673ffffffffffffffffffffffffffffffffffffffff168152602001908152602001600020549050919050565b606060018054610723906120df565b80601f016020809104026020016040519081016040528092919081815260200182805461074f906120df565b801561079c5780601f106107715761010080835404028352916020019161079c565b820191906000526020600020905b81548152906001019060200180831161077f57829003601f168201915b5050505050905090565b6107b86107b1610b30565b8383610fbc565b5050565b6107cd6107c7610b30565b83610bf1565b61080c576040517f08c379a0000000000000000000000000000000000000000000000000000000008152600401610803906122a6565b60405180910390fd5b61081884848484611128565b50505050565b606061082982610ae5565b6000600660008481526020019081526020016000208054610849906120df565b80601f0160208091040260200160405190810160405280929190818152602001828054610875906120df565b80156108c25780601f10610897576101008083540402835291602001916108c2565b820191906000526020600020905b8154815290600101906020018083116108a557829003601f168201915b5050505050905060006108d3611184565b905060008151036108e857819250505061092b565b60008251111561091d578082604051602001610905929190612400565b6040516020818303038152906040529250505061092b565b6109268461119b565b925050505b919050565b60006007600081548092919061094590612453565b91905055506000600754905061095b8482611203565b6109658184611420565b8091505092915050565b6000600560008473ffffffffffffffffffffffffffffffffffffffff1673ffffffffffffffffffffffffffffffffffffffff16815260200190815260200160002060008373ffffffffffffffffffffffffffffffffffffffff1673ffffffffffffffffffffffffffffffffffffffff16815260200190815260200160002060009054906101000a900460ff16905092915050565b60007f80ac58cd000000000000000000000000000000000000000000000000000000007bffffffffffffffffffffffffffffffffffffffffffffffffffffffff1916827bffffffffffffffffffffffffffffffffffffffffffffffffffffffff19161480610ace57507f5b5e139f000000000000000000000000000000000000000000000000000000007bffffffffffffffffffffffffffffffffffffffffffffffffffffffff1916827bffffffffffffffffffffffffffffffffffffffffffffffffffffffff1916145b80610ade5750610add826114cb565b5b9050919050565b610aee81611535565b610b2d576040517f08c379a0000000000000000000000000000000000000000000000000000000008152600401610b2490612312565b60405180910390fd5b50565b600033905090565b816004600083815260200190815260200160002060006101000a81548173ffffffffffffffffffffffffffffffffffffffff021916908373ffffffffffffffffffffffffffffffffffffffff160217905550808273ffffffffffffffffffffffffffffffffffffffff16610bab836105d7565b73ffffffffffffffffffffffffffffffffffffffff167f8c5be1e5ebec7d5bd14f71427d1e84f3dd0314c0f7b2291e5b200ac8c7c3b92560405160405180910390a45050565b600080610bfd836105d7565b90508073ffffffffffffffffffffffffffffffffffffffff168473ffffffffffffffffffffffffffffffffffffffff161480610c3f5750610c3e818561096f565b5b80610c7d57508373ffffffffffffffffffffffffffffffffffffffff16610c65846103fa565b73ffffffffffffffffffffffffffffffffffffffff16145b91505092915050565b8273ffffffffffffffffffffffffffffffffffffffff16610ca6826105d7565b73ffffffffffffffffffffffffffffffffffffffff1614610cfc576040517f08c379a0000000000000000000000000000000000000000000000000000000008152600401610cf39061250d565b60405180910390fd5b600073ffffffffffffffffffffffffffffffffffffffff168273ffffffffffffffffffffffffffffffffffffffff1603610d6b576040517f08c379a0000000000000000000000000000000000000000000000000000000008152600401610d629061259f565b60405180910390fd5b610d788383836001611576565b8273ffffffffffffffffffffffffffffffffffffffff16610d98826105d7565b73ffffffffffffffffffffffffffffffffffffffff1614610dee576040517f08c379a0000000000000000000000000000000000000000000000000000000008152600401610de59061250d565b60405180910390fd5b6004600082815260200190815260200160002060006101000a81549073ffffffffffffffffffffffffffffffffffffffff02191690556001600360008573ffffffffffffffffffffffffffffffffffffffff1673ffffffffffffffffffffffffffffffffffffffff168152602001908152602001600020600082825403925050819055506001600360008473ffffffffffffffffffffffffffffffffffffffff1673ffffffffffffffffffffffffffffffffffffffff16815260200190815260200160002060008282540192505081905550816002600083815260200190815260200160002060006101000a81548173ffffffffffffffffffffffffffffffffffffffff021916908373ffffffffffffffffffffffffffffffffffffffff160217905550808273ffffffffffffffffffffffffffffffffffffffff168473ffffffffffffffffffffffffffffffffffffffff167fddf252ad1be2c89b69c2b068fc378daa952ba7f163c4a11628f55a4df523b3ef60405160405180910390a4610f7a838383600161157c565b505050565b60006002600083815260200190815260200160002060009054906101000a900473ffffffffffffffffffffffffffffffffffffffff169050919050565b8173ffffffffffffffffffffffffffffffffffffffff168373ffffffffffffffffffffffffffffffffffffffff160361102a576040517f08c379a00000000000000000000000000000000000000000000000000000000081526004016110219061260b565b60405180910390fd5b80600560008573ffffffffffffffffffffffffffffffffffffffff1673ffffffffffffffffffffffffffffffffffffffff16815260200190815260200160002060008473ffffffffffffffffffffffffffffffffffffffff1673ffffffffffffffffffffffffffffffffffffffff16815260200190815260200160002060006101000a81548160ff0219169083151502179055508173ffffffffffffffffffffffffffffffffffffffff168373ffffffffffffffffffffffffffffffffffffffff167f17307eab39ab6107e8899845ad3d59bd9653f200f220920489ca2b5937696c318360405161111b9190611aa4565b60405180910390a3505050565b611133848484610c86565b61113f84848484611582565b61117e576040517f08c379a00000000000000000000000000000000000000000000000000000000081526004016111759061269d565b60405180910390fd5b50505050565b606060405180602001604052806000815250905090565b60606111a682610ae5565b60006111b0611184565b905060008151116111d057604051806020016040528060008152506111fb565b806111da84611709565b6040516020016111eb929190612400565b6040516020818303038152906040525b915050919050565b600073ffffffffffffffffffffffffffffffffffffffff168273ffffffffffffffffffffffffffffffffffffffff1603611272576040517f08c379a000000000000000000000000000000000000000000000000000000000815260040161126990612709565b60405180910390fd5b61127b81611535565b156112bb576040517f08c379a00000000000000000000000000000000000000000000000000000000081526004016112b290612775565b60405180910390fd5b6112c9600083836001611576565b6112d281611535565b15611312576040517f08c379a000000000000000000000000000000000000000000000000000000000815260040161130990612775565b60405180910390fd5b6001600360008473ffffffffffffffffffffffffffffffffffffffff1673ffffffffffffffffffffffffffffffffffffffff16815260200190815260200160002060008282540192505081905550816002600083815260200190815260200160002060006101000a81548173ffffffffffffffffffffffffffffffffffffffff021916908373ffffffffffffffffffffffffffffffffffffffff160217905550808273ffffffffffffffffffffffffffffffffffffffff16600073ffffffffffffffffffffffffffffffffffffffff167fddf252ad1be2c89b69c2b068fc378daa952ba7f163c4a11628f55a4df523b3ef60405160405180910390a461141c60008383600161157c565b5050565b61142982611535565b611468576040517f08c379a000000000000000000000000000000000000000000000000000000000815260040161145f90612807565b60405180910390fd5b8060066000848152602001908152602001600020908051906020019061148f92919061194d565b507ff8e1a15aba9398e019f0b49df1a4fde98ee17ae345cb5f6b5e2c27f5033e8ce7826040516114bf9190611d34565b60405180910390a15050565b60007f01ffc9a7000000000000000000000000000000000000000000000000000000007bffffffffffffffffffffffffffffffffffffffffffffffffffffffff1916827bffffffffffffffffffffffffffffffffffffffffffffffffffffffff1916149050919050565b60008073ffffffffffffffffffffffffffffffffffffffff1661155783610f7f565b73ffffffffffffffffffffffffffffffffffffffff1614159050919050565b50505050565b50505050565b60006115a38473ffffffffffffffffffffffffffffffffffffffff166117d7565b156116fc578373ffffffffffffffffffffffffffffffffffffffff1663150b7a026115cc610b30565b8786866040518563ffffffff1660e01b81526004016115ee949392919061287c565b6020604051808303816000875af192505050801561162a57506040513d601f19601f8201168201806040525081019061162791906128dd565b60015b6116ac573d806000811461165a576040519150601f19603f3d011682016040523d82523d6000602084013e61165f565b606091505b5060008151036116a4576040517f08c379a000000000000000000000000000000000000000000000000000000000815260040161169b9061269d565b60405180910390fd5b805181602001fd5b63150b7a0260e01b7bffffffffffffffffffffffffffffffffffffffffffffffffffffffff1916817bffffffffffffffffffffffffffffffffffffffffffffffffffffffff191614915050611701565b600190505b949350505050565b606060006001611718846117fa565b01905060008167ffffffffffffffff81111561173757611736611dc5565b5b6040519080825280601f01601f1916602001820160405280156117695781602001600182028036833780820191505090505b509050600082602001820190505b6001156117cc578080600190039150507f3031323334353637383961626364656600000000000000000000000000000000600a86061a8153600a85816117c0576117bf61290a565b5b04945060008503611777575b819350505050919050565b6000808273ffffffffffffffffffffffffffffffffffffffff163b119050919050565b600080600090507a184f03e93ff9f4daa797ed6e38ed64bf6a1f0100000000000000008310611858577a184f03e93ff9f4daa797ed6e38ed64bf6a1f010000000000000000838161184e5761184d61290a565b5b0492506040810190505b6d04ee2d6d415b85acef81000000008310611895576d04ee2d6d415b85acef8100000000838161188b5761188a61290a565b5b0492506020810190505b662386f26fc1000083106118c457662386f26fc1000083816118ba576118b961290a565b5b0492506010810190505b6305f5e10083106118ed576305f5e10083816118e3576118e261290a565b5b0492506008810190505b61271083106119125761271083816119085761190761290a565b5b0492506004810190505b60648310611935576064838161192b5761192a61290a565b5b0492506002810190505b600a8310611944576001810190505b80915050919050565b828054611959906120df565b90600052602060002090601f01602090048101928261197b57600085556119c2565b82601f1061199457805160ff19168380011785556119c2565b828001600101855582156119c2579182015b828111156119c15782518255916020019190600101906119a6565b5b5090506119cf91906119d3565b5090565b5b808211156119ec5760008160009055506001016119d4565b5090565b6000604051905090565b600080fd5b600080fd5b60007fffffffff0000000000000000000000000000000000000000000000000000000082169050919050565b611a3981611a04565b8114611a4457600080fd5b50565b600081359050611a5681611a30565b92915050565b600060208284031215611a7257611a716119fa565b5b6000611a8084828501611a47565b91505092915050565b60008115159050919050565b611a9e81611a89565b82525050565b6000602082019050611ab96000830184611a95565b92915050565b600081519050919050565b600082825260208201905092915050565b60005b83811015611af9578082015181840152602081019050611ade565b83811115611b08576000848401525b50505050565b6000601f19601f8301169050919050565b6000611b2a82611abf565b611b348185611aca565b9350611b44818560208601611adb565b611b4d81611b0e565b840191505092915050565b60006020820190508181036000830152611b728184611b1f565b905092915050565b6000819050919050565b611b8d81611b7a565b8114611b9857600080fd5b50565b600081359050611baa81611b84565b92915050565b600060208284031215611bc657611bc56119fa565b5b6000611bd484828501611b9b565b91505092915050565b600073ffffffffffffffffffffffffffffffffffffffff82169050919050565b6000611c0882611bdd565b9050919050565b611c1881611bfd565b82525050565b6000602082019050611c336000830184611c0f565b92915050565b611c4281611bfd565b8114611c4d57600080fd5b50565b600081359050611c5f81611c39565b92915050565b60008060408385031215611c7c57611c7b6119fa565b5b6000611c8a85828601611c50565b9250506020611c9b85828601611b9b565b9150509250929050565b600080600060608486031215611cbe57611cbd6119fa565b5b6000611ccc86828701611c50565b9350506020611cdd86828701611c50565b9250506040611cee86828701611b9b565b9150509250925092565b600060208284031215611d0e57611d0d6119fa565b5b6000611d1c84828501611c50565b91505092915050565b611d2e81611b7a565b82525050565b6000602082019050611d496000830184611d25565b92915050565b611d5881611a89565b8114611d6357600080fd5b50565b600081359050611d7581611d4f565b92915050565b60008060408385031215611d9257611d916119fa565b5b6000611da085828601611c50565b9250506020611db185828601611d66565b9150509250929050565b600080fd5b600080fd5b7f4e487b7100000000000000000000000000000000000000000000000000000000600052604160045260246000fd5b611dfd82611b0e565b810181811067ffffffffffffffff82111715611e1c57611e1b611dc5565b5b80604052505050565b6000611e2f6119f0565b9050611e3b8282611df4565b919050565b600067ffffffffffffffff821115611e5b57611e5a611dc5565b5b611e6482611b0e565b9050602081019050919050565b82818337600083830152505050565b6000611e93611e8e84611e40565b611e25565b905082815260208101848484011115611eaf57611eae611dc0565b5b611eba848285611e71565b509392505050565b600082601f830112611ed757611ed6611dbb565b5b8135611ee7848260208601611e80565b91505092915050565b60008060008060808587031215611f0a57611f096119fa565b5b6000611f1887828801611c50565b9450506020611f2987828801611c50565b9350506040611f3a87828801611b9b565b925050606085013567ffffffffffffffff811115611f5b57611f5a6119ff565b5b611f6787828801611ec2565b91505092959194509250565b600067ffffffffffffffff821115611f8e57611f8d611dc5565b5b611f9782611b0e565b9050602081019050919050565b6000611fb7611fb284611f73565b611e25565b905082815260208101848484011115611fd357611fd2611dc0565b5b611fde848285611e71565b509392505050565b600082601f830112611ffb57611ffa611dbb565b5b813561200b848260208601611fa4565b91505092915050565b6000806040838503121561202b5761202a6119fa565b5b600061203985828601611c50565b925050602083013567ffffffffffffffff81111561205a576120596119ff565b5b61206685828601611fe6565b9150509250929050565b60008060408385031215612087576120866119fa565b5b600061209585828601611c50565b92505060206120a685828601611c50565b9150509250929050565b7f4e487b7100000000000000000000000000000000000000000000000000000000600052602260045260246000fd5b600060028204905060018216806120f757607f821691505b60208210810361210a576121096120b0565b5b50919050565b7f4552433732313a20617070726f76616c20746f2063757272656e74206f776e6560008201527f7200000000000000000000000000000000000000000000000000000000000000602082015250565b600061216c602183611aca565b915061217782612110565b604082019050919050565b6000602082019050818103600083015261219b8161215f565b9050919050565b7f4552433732313a20617070726f76652063616c6c6572206973206e6f7420746f60008201527f6b656e206f776e6572206f7220617070726f76656420666f7220616c6c000000602082015250565b60006121fe603d83611aca565b9150612209826121a2565b604082019050919050565b6000602082019050818103600083015261222d816121f1565b9050919050565b7f4552433732313a2063616c6c6572206973206e6f7420746f6b656e206f776e6560008201527f72206f7220617070726f76656400000000000000000000000000000000000000602082015250565b6000612290602d83611aca565b915061229b82612234565b604082019050919050565b600060208201905081810360008301526122bf81612283565b9050919050565b7f4552433732313a20696e76616c696420746f6b656e2049440000000000000000600082015250565b60006122fc601883611aca565b9150612307826122c6565b602082019050919050565b6000602082019050818103600083015261232b816122ef565b9050919050565b7f4552433732313a2061646472657373207a65726f206973206e6f74206120766160008201527f6c6964206f776e65720000000000000000000000000000000000000000000000602082015250565b600061238e602983611aca565b915061239982612332565b604082019050919050565b600060208201905081810360008301526123bd81612381565b9050919050565b600081905092915050565b60006123da82611abf565b6123e481856123c4565b93506123f4818560208601611adb565b80840191505092915050565b600061240c82856123cf565b915061241882846123cf565b91508190509392505050565b7f4e487b7100000000000000000000000000000000000000000000000000000000600052601160045260246000fd5b600061245e82611b7a565b91507fffffffffffffffffffffffffffffffffffffffffffffffffffffffffffffffff82036124905761248f612424565b5b600182019050919050565b7f4552433732313a207472616e736665722066726f6d20696e636f72726563742060008201527f6f776e6572000000000000000000000000000000000000000000000000000000602082015250565b60006124f7602583611aca565b91506125028261249b565b604082019050919050565b60006020820190508181036000830152612526816124ea565b9050919050565b7f4552433732313a207472616e7366657220746f20746865207a65726f2061646460008201527f7265737300000000000000000000000000000000000000000000000000000000602082015250565b6000612589602483611aca565b91506125948261252d565b604082019050919050565b600060208201905081810360008301526125b88161257c565b9050919050565b7f4552433732313a20617070726f766520746f2063616c6c657200000000000000600082015250565b60006125f5601983611aca565b9150612600826125bf565b602082019050919050565b60006020820190508181036000830152612624816125e8565b9050919050565b7f4552433732313a207472616e7366657220746f206e6f6e20455243373231526560008201527f63656976657220696d706c656d656e7465720000000000000000000000000000602082015250565b6000612687603283611aca565b91506126928261262b565b604082019050919050565b600060208201905081810360008301526126b68161267a565b9050919050565b7f4552433732313a206d696e7420746f20746865207a65726f2061646472657373600082015250565b60006126f3602083611aca565b91506126fe826126bd565b602082019050919050565b60006020820190508181036000830152612722816126e6565b9050919050565b7f4552433732313a20746f6b656e20616c7265616479206d696e74656400000000600082015250565b600061275f601c83611aca565b915061276a82612729565b602082019050919050565b6000602082019050818103600083015261278e81612752565b9050919050565b7f45524337323155524953746f726167653a2055524920736574206f66206e6f6e60008201527f6578697374656e7420746f6b656e000000000000000000000000000000000000602082015250565b60006127f1602e83611aca565b91506127fc82612795565b604082019050919050565b60006020820190508181036000830152612820816127e4565b9050919050565b600081519050919050565b600082825260208201905092915050565b600061284e82612827565b6128588185612832565b9350612868818560208601611adb565b61287181611b0e565b840191505092915050565b60006080820190506128916000830187611c0f565b61289e6020830186611c0f565b6128ab6040830185611d25565b81810360608301526128bd8184612843565b905095945050505050565b6000815190506128d781611a30565b92915050565b6000602082840312156128f3576128f26119fa565b5b6000612901848285016128c8565b91505092915050565b7f4e487b7100000000000000000000000000000000000000000000000000000000600052601260045260246000fdfea26469706673582212203b1e2fff01a3fdfcfc3134d76054f9b673cd0dfe2d29deb1e57639e95fd1d52064736f6c634300080d0033",
  "immutableReferences": {},
  "source": "pragma solidity ^0.8.0;\r\n\r\nimport \"@openzeppelin/contracts/token/ERC721/ERC721.sol\";\r\nimport \"@openzeppelin/contracts/token/ERC721/extensions/ERC721URIStorage.sol\";\r\nimport \"@openzeppelin/contracts/utils/Counters.sol\";\r\n\r\ncontract MotionAttendance {\r\n    struct Attendee {\r\n        uint voteDisposition; // Yes/no/abstain\r\n        uint energyLevel; // how supportive is said attendee perceived to the issue at hand\r\n        uint mediaUsed; // device type used to attend:   0 means in-person; 1 means laptop; 2 means AR; 3 means VR\r\n        bytes32 callsign;\r\n        uint intention; // scale of 1 to 10: 10 is highest, attendees intention to push topic forward\r\n    }\r\n\r\n    struct Attendance {\r\n        Attendee[] attendees;\r\n    }\r\n\r\n    event AttendeeAdded(bytes32 motionName, uint voteDisposition, uint energyLevel, uint mediaUsed, bytes32 callsign, uint intent);\r\n    address public chairperson;\r\n    mapping(bytes32 => Attendance) attendances;\r\n\r\n    // Chairperson has to create the motion\r\n    constructor() {\r\n        chairperson = msg.sender;\r\n    }\r\n\r\n    function addAttendee(bytes32 motionName, uint voteDisposition, uint energyLevel, uint mediaUsed, bytes32 callsign, uint intent) public {\r\n        Attendee memory attendee;\r\n        attendee.voteDisposition = voteDisposition;\r\n        attendee.energyLevel = energyLevel;\r\n        attendee.mediaUsed = mediaUsed;\r\n        attendee.callsign = callsign;\r\n        attendee.intention = intent;\r\n        attendances[motionName].attendees.push(attendee);\r\n        emit AttendeeAdded(motionName, voteDisposition, energyLevel, mediaUsed, callsign, intent);\r\n    }\r\n\r\n    function getAttendance(bytes32 motionName) public view returns (uint) {\r\n        return attendances[motionName].attendees.length;\r\n    }\r\n\r\n    function getAttendee(bytes32 motionName, uint index) public view returns (Attendee memory) {\r\n        return attendances[motionName].attendees[index];\r\n    }\r\n}\r\n\r\ncontract MotionRecords {\r\n    // meeting metadata\r\n    struct Motion {\r\n        bytes32 name;\r\n        uint yesCount;\r\n        uint noCount;\r\n        uint abstainCount;\r\n        uint passionLevel;\r\n        uint engageLevel;\r\n        uint activeLevel;\r\n        uint confusedLevel;\r\n        uint uncaringLevel;\r\n        // TODO: add video per breakout room\r\n        bytes32[] motionRecordings; // IPFS hash for breakout room recordings\r\n    }\r\n\r\n    mapping(bytes32 => Motion) public motions;\r\n\r\n    // Chairperson has to create the motion\r\n    function createMotion(bytes32 motionName) public {\r\n        Motion memory motion;\r\n        motion.name = motionName;\r\n\r\n        motions[motionName] = motion;\r\n    }\r\n\r\n    function updateMotionRecord( bytes32 motionName\r\n                               , uint yesCount\r\n                               , uint noCount\r\n                               , uint abstainCount\r\n                               , uint passionLevel\r\n                               , uint engageLevel\r\n                               , uint activeLevel\r\n                               , uint confusedLevel\r\n                               , uint uncaringLevel\r\n                               , bytes32[] memory recordings\r\n                               ) public {\r\n        motions[motionName].yesCount = yesCount;\r\n        motions[motionName].noCount = noCount;\r\n        motions[motionName].abstainCount = abstainCount;\r\n        motions[motionName].passionLevel = passionLevel;\r\n        motions[motionName].engageLevel = engageLevel;\r\n        motions[motionName].activeLevel = activeLevel;\r\n        motions[motionName].confusedLevel = confusedLevel;\r\n        motions[motionName].uncaringLevel = uncaringLevel;\r\n        motions[motionName].motionRecordings = recordings;\r\n    }\r\n\r\n    function getMotionInfo(bytes32 motionName) public view returns (Motion memory) {\r\n        return motions[motionName];\r\n    }\r\n}\r\n\r\ncontract CityVoucher is ERC721URIStorage {\r\n    uint256 private _tokenIds;\r\n\r\n    constructor() ERC721(\"CityVoucher\", \"CV\") {}\r\n\r\n    function awardItem(address player, string memory tokenURI) public returns (uint256) {\r\n        _tokenIds++;\r\n\r\n        uint256 newItemId = _tokenIds;\r\n        _mint(player, newItemId);\r\n        _setTokenURI(newItemId, tokenURI);\r\n\r\n        return newItemId;\r\n    }\r\n}",
  "sourcePath": "C:\\projects\\blockchain\\voting-mth\\contracts\\Mth.sol",
  "compiler": {
    "name": "solc",
    "version": "0.8.13+commit.abaa5c0e.Emscripten.clang"
  },
  "schemaVersion": "3.4.14",
  "updatedAt": "2023-07-22T14:31:53.421Z",
  "networkType": "ethereum",
  "devdoc": {
    "kind": "dev",
    "methods": {
      "approve(address,uint256)": {
        "details": "See {IERC721-approve}."
      },
      "balanceOf(address)": {
        "details": "See {IERC721-balanceOf}."
      },
      "getApproved(uint256)": {
        "details": "See {IERC721-getApproved}."
      },
      "isApprovedForAll(address,address)": {
        "details": "See {IERC721-isApprovedForAll}."
      },
      "name()": {
        "details": "See {IERC721Metadata-name}."
      },
      "ownerOf(uint256)": {
        "details": "See {IERC721-ownerOf}."
      },
      "safeTransferFrom(address,address,uint256)": {
        "details": "See {IERC721-safeTransferFrom}."
      },
      "safeTransferFrom(address,address,uint256,bytes)": {
        "details": "See {IERC721-safeTransferFrom}."
      },
      "setApprovalForAll(address,bool)": {
        "details": "See {IERC721-setApprovalForAll}."
      },
      "supportsInterface(bytes4)": {
        "details": "See {IERC165-supportsInterface}"
      },
      "symbol()": {
        "details": "See {IERC721Metadata-symbol}."
      },
      "tokenURI(uint256)": {
        "details": "See {IERC721Metadata-tokenURI}."
      },
      "transferFrom(address,address,uint256)": {
        "details": "See {IERC721-transferFrom}."
      }
    },
    "version": 1
  },
  "userdoc": {
    "kind": "user",
    "methods": {},
    "version": 1
  }
}