{
  "contractName": "MotionRecords",
  "abi": [
    {
      "inputs": [
        {
          "internalType": "bytes32",
          "name": "",
          "type": "bytes32"
        }
      ],
      "name": "motions",
      "outputs": [
        {
          "internalType": "bytes32",
          "name": "name",
          "type": "bytes32"
        },
        {
          "internalType": "uint256",
          "name": "yesCount",
          "type": "uint256"
        },
        {
          "internalType": "uint256",
          "name": "noCount",
          "type": "uint256"
        },
        {
          "internalType": "uint256",
          "name": "abstainCount",
          "type": "uint256"
        },
        {
          "internalType": "uint256",
          "name": "passionLevel",
          "type": "uint256"
        },
        {
          "internalType": "uint256",
          "name": "engageLevel",
          "type": "uint256"
        },
        {
          "internalType": "uint256",
          "name": "activeLevel",
          "type": "uint256"
        },
        {
          "internalType": "uint256",
          "name": "confusedLevel",
          "type": "uint256"
        },
        {
          "internalType": "uint256",
          "name": "uncaringLevel",
          "type": "uint256"
        }
      ],
      "stateMutability": "view",
      "type": "function",
      "constant": true
    },
    {
      "inputs": [
        {
          "internalType": "bytes32",
          "name": "motionName",
          "type": "bytes32"
        }
      ],
      "name": "createMotion",
      "outputs": [],
      "stateMutability": "nonpayable",
      "type": "function"
    },
    {
      "inputs": [
        {
          "internalType": "bytes32",
          "name": "motionName",
          "type": "bytes32"
        },
        {
          "internalType": "uint256",
          "name": "yesCount",
          "type": "uint256"
        },
        {
          "internalType": "uint256",
          "name": "noCount",
          "type": "uint256"
        },
        {
          "internalType": "uint256",
          "name": "abstainCount",
          "type": "uint256"
        },
        {
          "internalType": "uint256",
          "name": "passionLevel",
          "type": "uint256"
        },
        {
          "internalType": "uint256",
          "name": "engageLevel",
          "type": "uint256"
        },
        {
          "internalType": "uint256",
          "name": "activeLevel",
          "type": "uint256"
        },
        {
          "internalType": "uint256",
          "name": "confusedLevel",
          "type": "uint256"
        },
        {
          "internalType": "uint256",
          "name": "uncaringLevel",
          "type": "uint256"
        },
        {
          "internalType": "bytes32[]",
          "name": "recordings",
          "type": "bytes32[]"
        }
      ],
      "name": "updateMotionRecord",
      "outputs": [],
      "stateMutability": "nonpayable",
      "type": "function"
    },
    {
      "inputs": [
        {
          "internalType": "bytes32",
          "name": "motionName",
          "type": "bytes32"
        }
      ],
      "name": "getMotionInfo",
      "outputs": [
        {
          "components": [
            {
              "internalType": "bytes32",
              "name": "name",
              "type": "bytes32"
            },
            {
              "internalType": "uint256",
              "name": "yesCount",
              "type": "uint256"
            },
            {
              "internalType": "uint256",
              "name": "noCount",
              "type": "uint256"
            },
            {
              "internalType": "uint256",
              "name": "abstainCount",
              "type": "uint256"
            },
            {
              "internalType": "uint256",
              "name": "passionLevel",
              "type": "uint256"
            },
            {
              "internalType": "uint256",
              "name": "engageLevel",
              "type": "uint256"
            },
            {
              "internalType": "uint256",
              "name": "activeLevel",
              "type": "uint256"
            },
            {
              "internalType": "uint256",
              "name": "confusedLevel",
              "type": "uint256"
            },
            {
              "internalType": "uint256",
              "name": "uncaringLevel",
              "type": "uint256"
            },
            {
              "internalType": "bytes32[]",
              "name": "motionRecordings",
              "type": "bytes32[]"
            }
          ],
          "internalType": "struct MotionRecords.Motion",
          "name": "",
          "type": "tuple"
        }
      ],
      "stateMutability": "view",
      "type": "function",
      "constant": true
    }
  ],
  "bytecode": "0x608060405234801561001057600080fd5b50610a34806100206000396000f3fe608060405234801561001057600080fd5b506004361061004c5760003560e01c806348da8bf11461005157806381ca175314610081578063b98fde71146100b9578063d67d254d146100d5575b600080fd5b61006b600480360381019061006691906104d3565b6100f1565b60405161007891906106b1565b60405180910390f35b61009b600480360381019061009691906104d3565b6101d0565b6040516100b0999897969594939291906106f1565b60405180910390f35b6100d360048036038101906100ce9190610903565b61021e565b005b6100ef60048036038101906100ea91906104d3565b610324565b005b6100f96103c9565b60008083815260200190815260200160002060405180610140016040529081600082015481526020016001820154815260200160028201548152602001600382015481526020016004820154815260200160058201548152602001600682015481526020016007820154815260200160088201548152602001600982018054806020026020016040519081016040528092919081815260200182805480156101c057602002820191906000526020600020905b8154815260200190600101908083116101ac575b5050505050815250509050919050565b60006020528060005260406000206000915090508060000154908060010154908060020154908060030154908060040154908060050154908060060154908060070154908060080154905089565b886000808c815260200190815260200160002060010181905550876000808c815260200190815260200160002060020181905550866000808c815260200190815260200160002060030181905550856000808c815260200190815260200160002060040181905550846000808c815260200190815260200160002060050181905550836000808c815260200190815260200160002060060181905550826000808c815260200190815260200160002060070181905550816000808c815260200190815260200160002060080181905550806000808c8152602001908152602001600020600901908051906020019061031792919061041f565b5050505050505050505050565b61032c6103c9565b8181600001818152505080600080848152602001908152602001600020600082015181600001556020820151816001015560408201518160020155606082015181600301556080820151816004015560a0820151816005015560c0820151816006015560e0820151816007015561010082015181600801556101208201518160090190805190602001906103c192919061041f565b509050505050565b604051806101400160405280600080191681526020016000815260200160008152602001600081526020016000815260200160008152602001600081526020016000815260200160008152602001606081525090565b82805482825590600052602060002090810192821561045b579160200282015b8281111561045a57825182559160200191906001019061043f565b5b509050610468919061046c565b5090565b5b8082111561048557600081600090555060010161046d565b5090565b6000604051905090565b600080fd5b600080fd5b6000819050919050565b6104b08161049d565b81146104bb57600080fd5b50565b6000813590506104cd816104a7565b92915050565b6000602082840312156104e9576104e8610493565b5b60006104f7848285016104be565b91505092915050565b6105098161049d565b82525050565b6000819050919050565b6105228161050f565b82525050565b600081519050919050565b600082825260208201905092915050565b6000819050602082019050919050565b60006105608383610500565b60208301905092915050565b6000602082019050919050565b600061058482610528565b61058e8185610533565b935061059983610544565b8060005b838110156105ca5781516105b18882610554565b97506105bc8361056c565b92505060018101905061059d565b5085935050505092915050565b6000610140830160008301516105f06000860182610500565b5060208301516106036020860182610519565b5060408301516106166040860182610519565b5060608301516106296060860182610519565b50608083015161063c6080860182610519565b5060a083015161064f60a0860182610519565b5060c083015161066260c0860182610519565b5060e083015161067560e0860182610519565b5061010083015161068a610100860182610519565b506101208301518482036101208601526106a48282610579565b9150508091505092915050565b600060208201905081810360008301526106cb81846105d7565b905092915050565b6106dc8161049d565b82525050565b6106eb8161050f565b82525050565b600061012082019050610707600083018c6106d3565b610714602083018b6106e2565b610721604083018a6106e2565b61072e60608301896106e2565b61073b60808301886106e2565b61074860a08301876106e2565b61075560c08301866106e2565b61076260e08301856106e2565b6107706101008301846106e2565b9a9950505050505050505050565b6107878161050f565b811461079257600080fd5b50565b6000813590506107a48161077e565b92915050565b600080fd5b6000601f19601f8301169050919050565b7f4e487b7100000000000000000000000000000000000000000000000000000000600052604160045260246000fd5b6107f8826107af565b810181811067ffffffffffffffff82111715610817576108166107c0565b5b80604052505050565b600061082a610489565b905061083682826107ef565b919050565b600067ffffffffffffffff821115610856576108556107c0565b5b602082029050602081019050919050565b600080fd5b600061087f61087a8461083b565b610820565b905080838252602082019050602084028301858111156108a2576108a1610867565b5b835b818110156108cb57806108b788826104be565b8452602084019350506020810190506108a4565b5050509392505050565b600082601f8301126108ea576108e96107aa565b5b81356108fa84826020860161086c565b91505092915050565b6000806000806000806000806000806101408b8d03121561092757610926610493565b5b60006109358d828e016104be565b9a505060206109468d828e01610795565b99505060406109578d828e01610795565b98505060606109688d828e01610795565b97505060806109798d828e01610795565b96505060a061098a8d828e01610795565b95505060c061099b8d828e01610795565b94505060e06109ac8d828e01610795565b9350506101006109be8d828e01610795565b9250506101208b013567ffffffffffffffff8111156109e0576109df610498565b5b6109ec8d828e016108d5565b9150509295989b9194979a509295985056fea2646970667358221220716633c6a8eaebe3a2fa9d53c287c146348e8e0147ab6c37b3f4c1df3d3b1a3e64736f6c634300080d0033",
  "immutableReferences": {},
  "source": "pragma solidity ^0.8.0;\r\n\r\ncontract MotionAttendance {\r\n    struct Attendee {\r\n        uint voteDisposition; // Yes/no/abstain\r\n        uint energyLevel; // how supportive is said attendee perceived to the issue at hand\r\n        uint mediaUsed; // device type used to attend:   0 means in-person; 1 means laptop; 2 means AR; 3 means VR\r\n        bytes32 callsign;\r\n        uint intention; // scale of 1 to 10: 10 is highest, attendees intention to push topic forward\r\n    }\r\n\r\n    struct Attendance {\r\n        Attendee[] attendees;\r\n    }\r\n\r\n    address public chairperson;\r\n    mapping(bytes32 => Attendance) attendances;\r\n\r\n    // Chairperson has to create the motion\r\n    constructor() {\r\n        chairperson = msg.sender;\r\n    }\r\n\r\n    function addAttendee(bytes32 motionName, uint voteDisposition, uint energyLevel, uint mediaUsed, bytes32 callsign, uint intent) public {\r\n        Attendee memory attendee;\r\n        attendee.voteDisposition = voteDisposition;\r\n        attendee.energyLevel = energyLevel;\r\n        attendee.mediaUsed = mediaUsed;\r\n        attendee.callsign = callsign;\r\n        attendee.intention = intent;\r\n        attendances[motionName].attendees.push(attendee);\r\n    }\r\n\r\n    function getAttendance(bytes32 motionName) public view returns (uint) {\r\n        return attendances[motionName].attendees.length;\r\n    }\r\n\r\n    function getAttendee(bytes32 motionName, uint index) public view returns (Attendee memory) {\r\n        return attendances[motionName].attendees[index];\r\n    }\r\n}\r\n\r\ncontract MotionRecords {\r\n    // meeting metadata\r\n    struct Motion {\r\n        bytes32 name;\r\n        uint yesCount;\r\n        uint noCount;\r\n        uint abstainCount;\r\n        uint passionLevel;\r\n        uint engageLevel;\r\n        uint activeLevel;\r\n        uint confusedLevel;\r\n        uint uncaringLevel;\r\n        // TODO: add video per breakout room\r\n        bytes32[] motionRecordings; // IPFS hash for breakout room recordings\r\n    }\r\n\r\n    mapping(bytes32 => Motion) public motions;\r\n\r\n    // Chairperson has to create the motion\r\n    function createMotion(bytes32 motionName) public {\r\n        Motion memory motion;\r\n        motion.name = motionName;\r\n\r\n        motions[motionName] = motion;\r\n    }\r\n\r\n    function updateMotionRecord( bytes32 motionName\r\n                               , uint yesCount\r\n                               , uint noCount\r\n                               , uint abstainCount\r\n                               , uint passionLevel\r\n                               , uint engageLevel\r\n                               , uint activeLevel\r\n                               , uint confusedLevel\r\n                               , uint uncaringLevel\r\n                               , bytes32[] memory recordings\r\n                               ) public {\r\n        motions[motionName].yesCount = yesCount;\r\n        motions[motionName].noCount = noCount;\r\n        motions[motionName].abstainCount = abstainCount;\r\n        motions[motionName].passionLevel = passionLevel;\r\n        motions[motionName].engageLevel = engageLevel;\r\n        motions[motionName].activeLevel = activeLevel;\r\n        motions[motionName].confusedLevel = confusedLevel;\r\n        motions[motionName].uncaringLevel = uncaringLevel;\r\n        motions[motionName].motionRecordings = recordings;\r\n    }\r\n\r\n    function getMotionInfo(bytes32 motionName) public view returns (Motion memory) {\r\n        return motions[motionName];\r\n    }\r\n}",
  "sourcePath": "C:\\projects\\blockchain\\voting-mth\\contracts\\Mth.sol",
  "compiler": {
    "name": "solc",
    "version": "0.8.13+commit.abaa5c0e.Emscripten.clang"
  },
  "schemaVersion": "3.4.14",
  "updatedAt": "2023-07-03T14:53:19.833Z",
  "networkType": "ethereum",
  "devdoc": {
    "kind": "dev",
    "methods": {},
    "version": 1
  },
  "userdoc": {
    "kind": "user",
    "methods": {},
    "version": 1
  }
}