{
  "contractName": "MotionAttendance",
  "abi": [
    {
      "inputs": [],
      "stateMutability": "nonpayable",
      "type": "constructor"
    },
    {
      "inputs": [],
      "name": "chairperson",
      "outputs": [
        {
          "internalType": "address",
          "name": "",
          "type": "address"
        }
      ],
      "stateMutability": "view",
      "type": "function",
      "constant": true
    },
    {
      "inputs": [
        {
          "internalType": "bytes32",
          "name": "motionName",
          "type": "bytes32"
        },
        {
          "internalType": "uint256",
          "name": "voteDisposition",
          "type": "uint256"
        },
        {
          "internalType": "uint256",
          "name": "energyLevel",
          "type": "uint256"
        },
        {
          "internalType": "uint256",
          "name": "mediaUsed",
          "type": "uint256"
        },
        {
          "internalType": "bytes32",
          "name": "callsign",
          "type": "bytes32"
        },
        {
          "internalType": "uint256",
          "name": "intent",
          "type": "uint256"
        }
      ],
      "name": "addAttendee",
      "outputs": [],
      "stateMutability": "nonpayable",
      "type": "function"
    },
    {
      "inputs": [
        {
          "internalType": "bytes32",
          "name": "motionName",
          "type": "bytes32"
        }
      ],
      "name": "getAttendance",
      "outputs": [
        {
          "internalType": "uint256",
          "name": "",
          "type": "uint256"
        }
      ],
      "stateMutability": "view",
      "type": "function",
      "constant": true
    },
    {
      "inputs": [
        {
          "internalType": "bytes32",
          "name": "motionName",
          "type": "bytes32"
        },
        {
          "internalType": "uint256",
          "name": "index",
          "type": "uint256"
        }
      ],
      "name": "getAttendee",
      "outputs": [
        {
          "components": [
            {
              "internalType": "uint256",
              "name": "voteDisposition",
              "type": "uint256"
            },
            {
              "internalType": "uint256",
              "name": "energyLevel",
              "type": "uint256"
            },
            {
              "internalType": "uint256",
              "name": "mediaUsed",
              "type": "uint256"
            },
            {
              "internalType": "bytes32",
              "name": "callsign",
              "type": "bytes32"
            },
            {
              "internalType": "uint256",
              "name": "intention",
              "type": "uint256"
            }
          ],
          "internalType": "struct MotionAttendance.Attendee",
          "name": "",
          "type": "tuple"
        }
      ],
      "stateMutability": "view",
      "type": "function",
      "constant": true
    }
  ],
  "bytecode": "0x608060405234801561001057600080fd5b50336000806101000a81548173ffffffffffffffffffffffffffffffffffffffff021916908373ffffffffffffffffffffffffffffffffffffffff160217905550610595806100606000396000f3fe608060405234801561001057600080fd5b506004361061004c5760003560e01c80631470623b146100515780632e4176cf146100815780639d8c26a71461009f5780639fd21d98146100cf575b600080fd5b61006b6004803603810190610066919061030f565b6100eb565b60405161007891906103d5565b60405180910390f35b61008961016e565b6040516100969190610431565b60405180910390f35b6100b960048036038101906100b4919061044c565b610192565b6040516100c69190610488565b60405180910390f35b6100e960048036038101906100e491906104a3565b6101b5565b005b6100f361026c565b60016000848152602001908152602001600020600001828154811061011b5761011a610530565b5b90600052602060002090600502016040518060a001604052908160008201548152602001600182015481526020016002820154815260200160038201548152602001600482015481525050905092915050565b60008054906101000a900473ffffffffffffffffffffffffffffffffffffffff1681565b600060016000838152602001908152602001600020600001805490509050919050565b6101bd61026c565b8581600001818152505084816020018181525050838160400181815250508281606001818152505081816080018181525050600160008881526020019081526020016000206000018190806001815401808255809150506001900390600052602060002090600502016000909190919091506000820151816000015560208201518160010155604082015181600201556060820151816003015560808201518160040155505050505050505050565b6040518060a0016040528060008152602001600081526020016000815260200160008019168152602001600081525090565b600080fd5b6000819050919050565b6102b6816102a3565b81146102c157600080fd5b50565b6000813590506102d3816102ad565b92915050565b6000819050919050565b6102ec816102d9565b81146102f757600080fd5b50565b600081359050610309816102e3565b92915050565b600080604083850312156103265761032561029e565b5b6000610334858286016102c4565b9250506020610345858286016102fa565b9150509250929050565b610358816102d9565b82525050565b610367816102a3565b82525050565b60a082016000820151610383600085018261034f565b506020820151610396602085018261034f565b5060408201516103a9604085018261034f565b5060608201516103bc606085018261035e565b5060808201516103cf608085018261034f565b50505050565b600060a0820190506103ea600083018461036d565b92915050565b600073ffffffffffffffffffffffffffffffffffffffff82169050919050565b600061041b826103f0565b9050919050565b61042b81610410565b82525050565b60006020820190506104466000830184610422565b92915050565b6000602082840312156104625761046161029e565b5b6000610470848285016102c4565b91505092915050565b610482816102d9565b82525050565b600060208201905061049d6000830184610479565b92915050565b60008060008060008060c087890312156104c0576104bf61029e565b5b60006104ce89828a016102c4565b96505060206104df89828a016102fa565b95505060406104f089828a016102fa565b945050606061050189828a016102fa565b935050608061051289828a016102c4565b92505060a061052389828a016102fa565b9150509295509295509295565b7f4e487b7100000000000000000000000000000000000000000000000000000000600052603260045260246000fdfea2646970667358221220307d43f2ba1f309918fb9eeaffa78d4d02ffb86a259a4d1be8785af4a453ecb064736f6c634300080d0033",
  "immutableReferences": {},
  "source": "pragma solidity ^0.8.0;\r\n\r\ncontract MotionAttendance {\r\n    struct Attendee {\r\n        uint voteDisposition; // Yes/no/abstain\r\n        uint energyLevel; // how supportive is said attendee perceived to the issue at hand\r\n        uint mediaUsed; // device type used to attend:   0 means in-person; 1 means laptop; 2 means AR; 3 means VR\r\n        bytes32 callsign;\r\n        uint intention; // scale of 1 to 10: 10 is highest, attendees intention to push topic forward\r\n    }\r\n\r\n    struct Attendance {\r\n        Attendee[] attendees;\r\n    }\r\n\r\n    address public chairperson;\r\n    mapping(bytes32 => Attendance) attendances;\r\n\r\n    // Chairperson has to create the motion\r\n    constructor() {\r\n        chairperson = msg.sender;\r\n    }\r\n\r\n    function addAttendee(bytes32 motionName, uint voteDisposition, uint energyLevel, uint mediaUsed, bytes32 callsign, uint intent) public {\r\n        Attendee memory attendee;\r\n        attendee.voteDisposition = voteDisposition;\r\n        attendee.energyLevel = energyLevel;\r\n        attendee.mediaUsed = mediaUsed;\r\n        attendee.callsign = callsign;\r\n        attendee.intention = intent;\r\n        attendances[motionName].attendees.push(attendee);\r\n    }\r\n\r\n    function getAttendance(bytes32 motionName) public view returns (uint) {\r\n        return attendances[motionName].attendees.length;\r\n    }\r\n\r\n    function getAttendee(bytes32 motionName, uint index) public view returns (Attendee memory) {\r\n        return attendances[motionName].attendees[index];\r\n    }\r\n}\r\n\r\ncontract MotionRecords {\r\n    // meeting metadata\r\n    struct Motion {\r\n        bytes32 name;\r\n        uint yesCount;\r\n        uint noCount;\r\n        uint abstainCount;\r\n        uint passionLevel;\r\n        uint engageLevel;\r\n        uint activeLevel;\r\n        uint confusedLevel;\r\n        uint uncaringLevel;\r\n        // TODO: add video per breakout room\r\n        bytes32[] motionRecordings; // IPFS hash for breakout room recordings\r\n    }\r\n\r\n    mapping(bytes32 => Motion) public motions;\r\n\r\n    // Chairperson has to create the motion\r\n    function createMotion(bytes32 motionName) public {\r\n        Motion memory motion;\r\n        motion.name = motionName;\r\n\r\n        motions[motionName] = motion;\r\n    }\r\n\r\n    function updateMotionRecord( bytes32 motionName\r\n                               , uint yesCount\r\n                               , uint noCount\r\n                               , uint abstainCount\r\n                               , uint passionLevel\r\n                               , uint engageLevel\r\n                               , uint activeLevel\r\n                               , uint confusedLevel\r\n                               , uint uncaringLevel\r\n                               , bytes32[] memory recordings\r\n                               ) public {\r\n        motions[motionName].yesCount = yesCount;\r\n        motions[motionName].noCount = noCount;\r\n        motions[motionName].abstainCount = abstainCount;\r\n        motions[motionName].passionLevel = passionLevel;\r\n        motions[motionName].engageLevel = engageLevel;\r\n        motions[motionName].activeLevel = activeLevel;\r\n        motions[motionName].confusedLevel = confusedLevel;\r\n        motions[motionName].uncaringLevel = uncaringLevel;\r\n        motions[motionName].motionRecordings = recordings;\r\n    }\r\n\r\n    function getMotionInfo(bytes32 motionName) public view returns (Motion memory) {\r\n        return motions[motionName];\r\n    }\r\n}",
  "sourcePath": "C:\\projects\\blockchain\\voting-mth\\contracts\\Mth.sol",
  "compiler": {
    "name": "solc",
    "version": "0.8.13+commit.abaa5c0e.Emscripten.clang"
  },
  "schemaVersion": "3.4.14",
  "updatedAt": "2023-07-03T14:53:19.826Z",
  "networkType": "ethereum",
  "devdoc": {
    "kind": "dev",
    "methods": {},
    "version": 1
  },
  "userdoc": {
    "kind": "user",
    "methods": {},
    "version": 1
  }
}