{
  "contractName": "MotionAttendance",
  "abi": [
    {
      "inputs": [],
      "stateMutability": "nonpayable",
      "type": "constructor"
    },
    {
      "anonymous": false,
      "inputs": [
        {
          "indexed": false,
          "internalType": "bytes32",
          "name": "motionName",
          "type": "bytes32"
        },
        {
          "indexed": false,
          "internalType": "uint256",
          "name": "voteDisposition",
          "type": "uint256"
        },
        {
          "indexed": false,
          "internalType": "uint256",
          "name": "energyLevel",
          "type": "uint256"
        },
        {
          "indexed": false,
          "internalType": "uint256",
          "name": "mediaUsed",
          "type": "uint256"
        },
        {
          "indexed": false,
          "internalType": "bytes32",
          "name": "callsign",
          "type": "bytes32"
        },
        {
          "indexed": false,
          "internalType": "uint256",
          "name": "intent",
          "type": "uint256"
        }
      ],
      "name": "AttendeeAdded",
      "type": "event"
    },
    {
      "inputs": [],
      "name": "chairperson",
      "outputs": [
        {
          "internalType": "address",
          "name": "",
          "type": "address"
        }
      ],
      "stateMutability": "view",
      "type": "function",
      "constant": true
    },
    {
      "inputs": [
        {
          "internalType": "bytes32",
          "name": "motionName",
          "type": "bytes32"
        },
        {
          "internalType": "uint256",
          "name": "voteDisposition",
          "type": "uint256"
        },
        {
          "internalType": "uint256",
          "name": "energyLevel",
          "type": "uint256"
        },
        {
          "internalType": "uint256",
          "name": "mediaUsed",
          "type": "uint256"
        },
        {
          "internalType": "bytes32",
          "name": "callsign",
          "type": "bytes32"
        },
        {
          "internalType": "uint256",
          "name": "intent",
          "type": "uint256"
        }
      ],
      "name": "addAttendee",
      "outputs": [],
      "stateMutability": "nonpayable",
      "type": "function"
    },
    {
      "inputs": [
        {
          "internalType": "bytes32",
          "name": "motionName",
          "type": "bytes32"
        }
      ],
      "name": "getAttendance",
      "outputs": [
        {
          "internalType": "uint256",
          "name": "",
          "type": "uint256"
        }
      ],
      "stateMutability": "view",
      "type": "function",
      "constant": true
    },
    {
      "inputs": [
        {
          "internalType": "bytes32",
          "name": "motionName",
          "type": "bytes32"
        },
        {
          "internalType": "uint256",
          "name": "index",
          "type": "uint256"
        }
      ],
      "name": "getAttendee",
      "outputs": [
        {
          "components": [
            {
              "internalType": "uint256",
              "name": "voteDisposition",
              "type": "uint256"
            },
            {
              "internalType": "uint256",
              "name": "energyLevel",
              "type": "uint256"
            },
            {
              "internalType": "uint256",
              "name": "mediaUsed",
              "type": "uint256"
            },
            {
              "internalType": "bytes32",
              "name": "callsign",
              "type": "bytes32"
            },
            {
              "internalType": "uint256",
              "name": "intention",
              "type": "uint256"
            }
          ],
          "internalType": "struct MotionAttendance.Attendee",
          "name": "",
          "type": "tuple"
        }
      ],
      "stateMutability": "view",
      "type": "function",
      "constant": true
    }
  ],
  "bytecode": "0x608060405234801561001057600080fd5b50336000806101000a81548173ffffffffffffffffffffffffffffffffffffffff021916908373ffffffffffffffffffffffffffffffffffffffff160217905550610646806100606000396000f3fe608060405234801561001057600080fd5b506004361061004c5760003560e01c80631470623b146100515780632e4176cf146100815780639d8c26a71461009f5780639fd21d98146100cf575b600080fd5b61006b60048036038101906100669190610350565b6100eb565b6040516100789190610416565b60405180910390f35b61008961016e565b6040516100969190610472565b60405180910390f35b6100b960048036038101906100b4919061048d565b610192565b6040516100c691906104c9565b60405180910390f35b6100e960048036038101906100e491906104e4565b6101b5565b005b6100f36102ad565b60016000848152602001908152602001600020600001828154811061011b5761011a610571565b5b90600052602060002090600502016040518060a001604052908160008201548152602001600182015481526020016002820154815260200160038201548152602001600482015481525050905092915050565b60008054906101000a900473ffffffffffffffffffffffffffffffffffffffff1681565b600060016000838152602001908152602001600020600001805490509050919050565b6101bd6102ad565b858160000181815250508481602001818152505083816040018181525050828160600181815250508181608001818152505060016000888152602001908152602001600020600001819080600181540180825580915050600190039060005260206000209060050201600090919091909150600082015181600001556020820151816001015560408201518160020155606082015181600301556080820151816004015550507fa0ad375d533d51bbf89dc16c9feeadafabadce66cd81be75d73e386c4308390987878787878760405161029c969594939291906105af565b60405180910390a150505050505050565b6040518060a0016040528060008152602001600081526020016000815260200160008019168152602001600081525090565b600080fd5b6000819050919050565b6102f7816102e4565b811461030257600080fd5b50565b600081359050610314816102ee565b92915050565b6000819050919050565b61032d8161031a565b811461033857600080fd5b50565b60008135905061034a81610324565b92915050565b60008060408385031215610367576103666102df565b5b600061037585828601610305565b92505060206103868582860161033b565b9150509250929050565b6103998161031a565b82525050565b6103a8816102e4565b82525050565b60a0820160008201516103c46000850182610390565b5060208201516103d76020850182610390565b5060408201516103ea6040850182610390565b5060608201516103fd606085018261039f565b5060808201516104106080850182610390565b50505050565b600060a08201905061042b60008301846103ae565b92915050565b600073ffffffffffffffffffffffffffffffffffffffff82169050919050565b600061045c82610431565b9050919050565b61046c81610451565b82525050565b60006020820190506104876000830184610463565b92915050565b6000602082840312156104a3576104a26102df565b5b60006104b184828501610305565b91505092915050565b6104c38161031a565b82525050565b60006020820190506104de60008301846104ba565b92915050565b60008060008060008060c08789031215610501576105006102df565b5b600061050f89828a01610305565b965050602061052089828a0161033b565b955050604061053189828a0161033b565b945050606061054289828a0161033b565b935050608061055389828a01610305565b92505060a061056489828a0161033b565b9150509295509295509295565b7f4e487b7100000000000000000000000000000000000000000000000000000000600052603260045260246000fd5b6105a9816102e4565b82525050565b600060c0820190506105c460008301896105a0565b6105d160208301886104ba565b6105de60408301876104ba565b6105eb60608301866104ba565b6105f860808301856105a0565b61060560a08301846104ba565b97965050505050505056fea2646970667358221220c08f73f53354abb9813628fb97981c68a3678463569b6539852bfff1db8949bf64736f6c634300080d0033",
  "immutableReferences": {},
  "source": "pragma solidity ^0.8.0;\r\n\r\nimport \"@openzeppelin/contracts/token/ERC721/ERC721.sol\";\r\nimport \"@openzeppelin/contracts/token/ERC721/extensions/ERC721URIStorage.sol\";\r\nimport \"@openzeppelin/contracts/utils/Counters.sol\";\r\n\r\ncontract MotionAttendance {\r\n    struct Attendee {\r\n        uint voteDisposition; // Yes/no/abstain\r\n        uint energyLevel; // how supportive is said attendee perceived to the issue at hand\r\n        uint mediaUsed; // device type used to attend:   0 means in-person; 1 means laptop; 2 means AR; 3 means VR\r\n        bytes32 callsign;\r\n        uint intention; // scale of 1 to 10: 10 is highest, attendees intention to push topic forward\r\n    }\r\n\r\n    struct Attendance {\r\n        Attendee[] attendees;\r\n    }\r\n\r\n    event AttendeeAdded(bytes32 motionName, uint voteDisposition, uint energyLevel, uint mediaUsed, bytes32 callsign, uint intent);\r\n    address public chairperson;\r\n    mapping(bytes32 => Attendance) attendances;\r\n\r\n    // Chairperson has to create the motion\r\n    constructor() {\r\n        chairperson = msg.sender;\r\n    }\r\n\r\n    function addAttendee(bytes32 motionName, uint voteDisposition, uint energyLevel, uint mediaUsed, bytes32 callsign, uint intent) public {\r\n        Attendee memory attendee;\r\n        attendee.voteDisposition = voteDisposition;\r\n        attendee.energyLevel = energyLevel;\r\n        attendee.mediaUsed = mediaUsed;\r\n        attendee.callsign = callsign;\r\n        attendee.intention = intent;\r\n        attendances[motionName].attendees.push(attendee);\r\n        emit AttendeeAdded(motionName, voteDisposition, energyLevel, mediaUsed, callsign, intent);\r\n    }\r\n\r\n    function getAttendance(bytes32 motionName) public view returns (uint) {\r\n        return attendances[motionName].attendees.length;\r\n    }\r\n\r\n    function getAttendee(bytes32 motionName, uint index) public view returns (Attendee memory) {\r\n        return attendances[motionName].attendees[index];\r\n    }\r\n}\r\n\r\ncontract MotionRecords {\r\n    // meeting metadata\r\n    struct Motion {\r\n        bytes32 name;\r\n        uint yesCount;\r\n        uint noCount;\r\n        uint abstainCount;\r\n        uint passionLevel;\r\n        uint engageLevel;\r\n        uint activeLevel;\r\n        uint confusedLevel;\r\n        uint uncaringLevel;\r\n        // TODO: add video per breakout room\r\n        bytes32[] motionRecordings; // IPFS hash for breakout room recordings\r\n    }\r\n\r\n    mapping(bytes32 => Motion) public motions;\r\n\r\n    // Chairperson has to create the motion\r\n    function createMotion(bytes32 motionName) public {\r\n        Motion memory motion;\r\n        motion.name = motionName;\r\n\r\n        motions[motionName] = motion;\r\n    }\r\n\r\n    function updateMotionRecord( bytes32 motionName\r\n                               , uint yesCount\r\n                               , uint noCount\r\n                               , uint abstainCount\r\n                               , uint passionLevel\r\n                               , uint engageLevel\r\n                               , uint activeLevel\r\n                               , uint confusedLevel\r\n                               , uint uncaringLevel\r\n                               , bytes32[] memory recordings\r\n                               ) public {\r\n        motions[motionName].yesCount = yesCount;\r\n        motions[motionName].noCount = noCount;\r\n        motions[motionName].abstainCount = abstainCount;\r\n        motions[motionName].passionLevel = passionLevel;\r\n        motions[motionName].engageLevel = engageLevel;\r\n        motions[motionName].activeLevel = activeLevel;\r\n        motions[motionName].confusedLevel = confusedLevel;\r\n        motions[motionName].uncaringLevel = uncaringLevel;\r\n        motions[motionName].motionRecordings = recordings;\r\n    }\r\n\r\n    function getMotionInfo(bytes32 motionName) public view returns (Motion memory) {\r\n        return motions[motionName];\r\n    }\r\n}\r\n\r\ncontract CityVoucher is ERC721URIStorage {\r\n    uint256 private _tokenIds;\r\n\r\n    constructor() ERC721(\"CityVoucher\", \"CV\") {}\r\n\r\n    function awardItem(address player, string memory tokenURI) public returns (uint256) {\r\n        _tokenIds++;\r\n\r\n        uint256 newItemId = _tokenIds;\r\n        _mint(player, newItemId);\r\n        _setTokenURI(newItemId, tokenURI);\r\n\r\n        return newItemId;\r\n    }\r\n}",
  "sourcePath": "C:\\projects\\blockchain\\voting-mth\\contracts\\Mth.sol",
  "compiler": {
    "name": "solc",
    "version": "0.8.13+commit.abaa5c0e.Emscripten.clang"
  },
  "schemaVersion": "3.4.14",
  "updatedAt": "2023-07-22T14:31:53.400Z",
  "networkType": "ethereum",
  "devdoc": {
    "kind": "dev",
    "methods": {},
    "version": 1
  },
  "userdoc": {
    "kind": "user",
    "methods": {},
    "version": 1
  }
}